:020000040800F2
:10000000704A00209D010008E11F0008271B00081E
:10001000DD1F0008E50B00081523000800000000A4
:1000200000000000000000000000000005010008C2
:10003000B50D00080000000049010008A5200008D7
:10004000B7010008B7010008B7010008B7010008B0
:10005000B7010008B7010008B7010008B7010008A0
:10006000B7010008B7010008B7010008B701000890
:10007000B7010008B7010008B7010008B701000880
:10008000B7010008B7010008B7010008B701000870
:10009000B7010008B7010008B7010008B701000860
:1000A000B7010008B7010008B7010008B701000850
:1000B000B7010008B7010008B7010008B701000840
:1000C000B7010008B7010008B7010008B701000830
:1000D000B7010008B7010008B7010008B701000820
:1000E000B7010008B7010008B7010008DFF810D019
:1000F00000F08EF800480047592B0008AFF300804D
:10010000704A0020224B19680868B0E8F00F80F3AD
:100110000988BFF36F8F4FF0000080F311884EF015
:100120000D0E70470000000006480068006880F36C
:10013000088862B661B6BFF34F8FBFF36F8F00DFE1
:1001400000BF00BF08ED00E0EFF30980BFF36F8F41
:100150000F4B1A6820E9F00F106008B54FF0BF0090
:1001600080F31188BFF34F8FBFF36F8F03F02EFB27
:100170004FF0000080F31188BDE808401968086856
:10018000B0E8F00F80F30988BFF36F8F704700BFAE
:1001900010000020EFF305807047000006488047FC
:1001A00006480047FEE7FEE7FEE7FEE7FEE7FEE75C
:1001B000FEE7FEE7FEE7FEE71F210008ED0000086E
:1001C000D2B201E000F8012B491EFBD27047002299
:1001D000F6E710B513460A4604461946FFF7F0FF46
:1001E000204610BD30B50B460146002020220124D8
:1001F00009E021FA02F59D4205D303FA02F5491BF5
:1002000004FA02F52844151EA2F10102F1DC30BD0A
:10021000064C074D06E0E06840F0010394E8070053
:1002200098471034AC42F6D3FFF764FF483C00080F
:10023000683C000870B58C1810F8015B15F00703D6
:1002400001D110F8013B2A1106D110F8012B03E06F
:1002500010F8016B01F8016B5B1EF9D12B0705D477
:100260000023521E0DD401F8013BFAE710F8013BC0
:10027000CB1A921C03E013F8015B01F8015B521EDC
:10028000F9D5A142D8D3002070BD00001CB51F488D
:10029000012100238022CDE900101DA1204803F098
:1002A000FDFA2048022100238022CDE900101EA182
:1002B000204803F0F3FA2048032100238022CDE9EF
:1002C00000101EA1204803F0E9FA20480421002371
:1002D0008022CDE900101EA1204803F0DFFA20485B
:1002E000042100238022CDE900101EA1204803F044
:1002F000D5FA2048042100238022CDE900101EA158
:10030000204803F0CBFA03F033FA1CBD7000002044
:100310007461736B5F636F6C6C65637400000000E5
:1003200005330008740000207461736B5F73686F9D
:100330007700000075340008780000207461736B4A
:100340005F73776974636800013500087C000020E2
:100350007461736B5F616C61726D000095310008B0
:10036000800000207461736B5F766F6C756D650043
:1003700061350008840000207461736B5F646562FE
:1003800075670000493300082DE9FC4107460E4619
:1003900015461C4603F0AEFA36490968401AB0F516
:1003A000FA7F0BD33448007808B9012000E0002020
:1003B0003149087003F09EFA2E4908602F480078F2
:1003C00020B1012829D002284FD14DE02A480078D9
:1003D000C8B1E07850B1E8B22949CDE90004087805
:1003E00033460122FF2101F0A1FB15E0207998B1ED
:1003F000E8B22449CDE90004087833460122FF2100
:1004000001F094FB08E0E8B233460122FF21CDE978
:100410000004084601F08AFB28E017480078C8B1BC
:10042000E07850B1E8B2CDE9000415484178334690
:100430000122FF2001F07AFB15E0207998B1E8B2A3
:10044000CDE900040F48417833460122FF2001F036
:100450006DFB08E0E8B233460122FF21CDE900043C
:10046000084601F063FB01E000E000BF00BFBDE80B
:10047000FC810000A4000020A000002097000020C4
:10048000880000208C0000202DE9FC4104460F4626
:1004900090461D4603F02EFA19490968401AB0F536
:1004A000FA7F0BD31748007808B9012000E000203C
:1004B0001449087003F01EFA114908600026207ADA
:1004C00028B1E07918B120790C30C6B200E0267965
:1004D000287848B10C2E05DBA6F10C00C6B201202D
:1004E000687001E00020687006480078CDE90005DA
:1004F000617943463A46304601F018FBBDE8FC817D
:10050000A4000020A000002010B501F033FC03F08F
:10051000F1F90149086010BDA40000202DE9FC4755
:1005200006460F4614461D4603F0E4F95249096891
:10053000401AB0F5FA7F0BD35048007808B9012073
:1005400000E000204D49087003F0D4F94A490860E2
:100550004B480078052873D2DFE800F0032D445B98
:10056000730046480078B0B13088642190FBF1F206
:1005700001FB120000F0FF08308890FBF1F000F062
:10058000FF09E0B23B4600224146CDE9000548465E
:1005900001F0CCFA0EE03088642190FBF1F000F01D
:1005A000FF08E0B23B460022FF21CDE900054046AE
:1005B00001F0BCFA5DE03148007848B1E0B2CDE925
:1005C0000005B0783B460022FF2101F0AFFA08E0B9
:1005D000E0B23B460022FF21CDE90005084601F0CC
:1005E000A5FA46E02548007848B1E0B2CDE900051B
:1005F000F1783B460022FF2001F098FA08E0E0B2D3
:100600003B460022FF21CDE90005084601F08EFAA5
:100610002FE01A48007848B1E0B2CDE90005307902
:100620003B460122FF2101F081FA08E0E0B23B469F
:100630000122FF21CDE90005084601F077FA18E014
:1006400016E00E48007848B1E0B2CDE900057179B6
:100650003B460122FF2001F069FA08E0E0B23B4688
:100660000122FF21CDE90005084601F05FFA00E014
:1006700000BF00BFBDE8FC87A4000020A000002050
:100680009600002010B502F0F7F90446032C6ED056
:10069000052C04D0062C55D0072C69D1EAE08048FF
:1006A000007818BB7F48C07801280DD17E480078BB
:1006B000401C40B27C490870084690F90000172899
:1006C0003FDD002008703CE076480079012838D1F1
:1006D00076480078401C40B274490870084690F98A
:1006E000000017282DDD002008702AE06C480078F3
:1006F000012826D16B48C07801280DD16A4840787E
:10070000401C40B268494870084690F901003B28F7
:1007100017DD0020487014E062480079012810D1EC
:100720006048007901280CD160484078401C40B2F4
:100730005E494870084690F901003B2801DD002021
:100740004870AAE05648007828BB5648C07801286F
:100750000FD155480078401E40B2534908700846F2
:1007600090F90000002841DA172008703EE03EE0D2
:1007700092E04C480079012838D14C480078401E5E
:1007800040B24A490870084690F9000000282DDA66
:10079000172008702AE042480078012826D14148F5
:1007A000C07801280DD140484078401E40B23E49F3
:1007B0004870084690F90100002817DA3B2048707D
:1007C00014E038480079012810D136480079012812
:1007D0000CD136484078401E40B234494870084633
:1007E00090F90100002801DA3B20487055E02C48C0
:1007F0000078401C2A49087008460078022838D141
:100800002B49087800EBD0714910A0EB410171B978
:100810002448C078012802D12549087024E02148E5
:100820000079012820D10320214908701CE02048CC
:10083000007801280AD11B480079012814D105202D
:100840001B49087001201749C8700DE0184800784E
:10085000032809D11348C078012805D1052014497F
:10086000087001200F4908710020124908700C49D6
:10087000087012E00B48C078012804D10020094913
:10088000C8700120087107480079012803D1054983
:10089000C8700020087100E000BF00BF10BD00005C
:1008A0009700002098000020880000208C00002085
:1008B000A80000209500002010B502F0DDF80446E5
:1008C000092C6CD2DFE804F06B05171F230E1B2EDA
:1008D00062003448007808B9012000E00020314966
:1008E00008705DE02F48807808B9012000E0002002
:1008F0002C49887054E001202B49087050E00320F7
:10090000294908704CE003202749087048E002207C
:10091000254908700020234908700120C870002074
:1009200008713DE021480078401C20490870087893
:1009300000EBD0714910A0EB410121B90020194909
:10094000C870087121E019480078012802D11549C2
:10095000C8701AE015480078032803D10120114916
:10096000087112E011480078052804D101200D49D2
:10097000C870087109E00D480078062805D10020EC
:100980000849C87008710949087009E005484079AC
:1009900008B9012000E000200249487100E000BFD2
:1009A00000BF10BD9800002095000020A800002086
:1009B00070B502F007F8044602F012F8054602F09E
:1009C0001DF8064636B901201449087002F092FF5E
:1009D00013490860012C1CD1012D03D101201149BC
:1009E000087019E00D480078012815D102F082FF47
:1009F0000B490968401A41F28831884203D8012026
:100A00000849087008E0002006490870034908708A
:100A100002E000200349087070BD0000A90000201A
:100A2000AC0000209F00002010B502F025F804461D
:100A3000012C7CD0052C02D0062C79D156E06548DB
:100A4000007878B964480088401C634908800846EB
:100A5000008840F63301884247DD4FF4FA605E4972
:100A6000088042E05B48007801280BD15A48807822
:100A7000401C59498870084680780C2835DD0120D3
:100A8000887032E05348007802280BD15248C07871
:100A9000401C5149C8700846C0781F2825DD012038
:100AA000C87022E04B48007803280DD14A480079ED
:100AB000401C40B248490871084690F904001728C4
:100AC00013DD0020087110E04248007804280CD1A2
:100AD00041484079401C40B23F494871084690F96E
:100AE00005003B2801DD0020487171E0394800789D
:100AF00068B939480088401E374908800846008890
:100B0000B0F5FA6F48DA40F63300088044E0314827
:100B1000007801280DD130488078401E2E49887019
:100B200008468078012837DA0C20887034E034E0F9
:100B30004DE02848007802280BD12748C078401E95
:100B40002549C8700846C078012825DA1F20C870DA
:100B500022E02048007803280DD11F480079401E6C
:100B600040B21D490871084690F90400002813DAC4
:100B70001720087110E01748007804280CD1164897
:100B80004079401E40B214494871084690F905006A
:100B9000002801DA3B2048711AE00E480078401C1A
:100BA0000C4908700846007805280FD100200B4931
:100BB00008700B4800780849087209484078C871E5
:100BC000084601F03FFD00200249087000E000BF28
:100BD00000BF10BD96000020644600209500002054
:100BE0009800002000BFFEE72DE9FC5F074688461D
:100BF0004FF00009CB4600224FF400414F4800F06F
:100C000075FA142002F09AFD0122D1034B4800F03E
:100C10006DFA02F03FFD6FF07F4500BF4FF40041D9
:100C2000464800F05BFA012803D1281EA5F1010512
:100C3000F4D100BF4FF40041404800F04FFA18B91A
:100C4000281EA5F10105F5D100BF4FF400413B4836
:100C500000F044FA012803D1281EA5F10105F4D1C2
:100C600025B9262236A13CA001F056FB00200090B9
:100C7000019000242EE000200DF80400002625E05D
:100C800000BF4FF400412D4800F028FA0028F8D0AA
:100C9000282001F0E7FE4FF40041284800F01EFA3A
:100CA000012811D11DF80400C6F10702012191406D
:100CB0000843C0B20DF8040000BF4FF400411F48C4
:100CC00000F00CFA0128F8D0701CC6B2082ED7DB51
:100CD000601CC4B2052CCEDB9DF800009DF801100D
:100CE00008449DF8021008449DF8031000EB010A27
:100CF0000AF0FF009DF80410884206D0412210A19E
:100D00001CA001F009FBBDE8FC9F9DF800004FFA14
:100D100080FB9DF802004FFA80F99DF8030000F077
:100D2000800018B1C9F100004FFA80F987F80090EF
:100D300088F800B002F0C0FC00BFE4E7000C0140FE
:100D4000696E69746572666163655C696E69745F1A
:100D500064687431312E63005B25733A25645D4409
:100D600048543131E6B2A1E69C89E5938DE5BA9409
:100D70000D0A00005B25733A25645D444854313107
:100D8000E695B0E68DAEE6A0A1E9AA8CE5A4B1E8AF
:100D9000B4A50D0A0000000010B50122D1030448DB
:100DA00000F0A4F94FF47A7002F0C8FC10BD000006
:100DB000000C0140704772B600BFFEE72DE9F8470E
:100DC0000346002294466EE14FF0010808FA02F44F
:100DD000D1F8008008EA0400A0427DD1DFF8DCA24F
:100DE000D1F80480A8EB0A09D0453AD014DCB8F158
:100DF000030F50D009DCB8F1000F31D0B8F1010F6A
:100E00001CD0B8F1020F49D120E0B8F1110F18D071
:100E1000B8F1120F42D11EE0B9F5881F25D006DCCB
:100E2000B9F5803F20D0B9F5801F37D11AE0B9F568
:100E3000001F18D0B9F5041F30D117E0D1F80CC04D
:100E40002DE0D1F80C8008F1040C28E0D1F80C80DA
:100E500008F1080C23E0D1F80C8008F10C0C1EE01E
:100E600000BF00BF00BF00BF00BF00BFD1F80880B7
:100E7000B8F1000F02D14FF0040C0BE0D1F808805C
:100E8000B8F1010F03D14FF0080C1C6102E04FF0E4
:100E9000080C5C6103E04FF0000C00E000BF00BFF5
:100EA000FF2801D8984601E003F104084646FF28D0
:100EB00002D84FEA820803E0A2F108084FEA880846
:100EC0004746D6F800804FF00F0909FA07F928EADB
:100ED00009080CFA07F900E088E048EA0908C6F8B2
:100EE0000080D1F8048008F08058B8F1805F7DD18F
:100EF00000BFDFF8CC81D8F8188048F00108DFF88F
:100F0000C091C9F81880C846D8F8188008F00108C0
:100F1000CDF8008000BF00BF4FEAB9384FEA920910
:100F200058F829504FEA82784FEA18794FF00F08A5
:100F300008FA09F825EA0805DFF88881434502D157
:100F40004FF0000816E0DFF88081434502D14FF0F2
:100F500001080FE0DFF87481434502D14FF0020829
:100F600008E0DFF86C81434502D14FF0030801E04F
:100F70004FF004084FEA82794FEA197908FA09F824
:100F800048EA0505DFF84C814FEA920948F82950F4
:100F9000D1F8048008F48018B8F5801F0AD1DFF872
:100FA0003881D8F8008048EA0008DFF82C91C9F8A9
:100FB000008009E0DFF82081D8F8008028EA0008E6
:100FC000DFF81491C9F80080D1F8048008F4001803
:100FD000B8F5001F10D1DFF8008108F10408D8F837
:100FE000008048EA0008DFF8F09000E05AE009F1DC
:100FF0000409C9F800800DE0DFF8DC8008F104087E
:10100000D8F8008028EA0008DFF8CC9009F104093C
:10101000C9F80080D1F8048008F40038B8F5003F22
:101020000ED1DFF8B480A8F10408D8F8008048EAAF
:101030000008DFF8A490A9F10409C9F800800DE0C8
:10104000DFF89480A8F10408D8F8008028EA0008A6
:10105000DFF88490A9F10409C9F80080D1F8048070
:1010600008F48038B8F5803F0ED1DFF86C80A8F125
:101070000808D8F8008048EA0008DFF85C90A9F179
:101080000809C9F800800DE0DFF84C80A8F10808D5
:10109000D8F8008028EA0008DFF83C90A9F1080998
:1010A000C9F80080521CD1F8008028FA02F8B8F183
:1010B000000F7FF489AEBDE8F88700000000111032
:1010C0000010024000080140000C014000100140E7
:1010D00000140140080001400804014002469368E2
:1010E0000B400BB1012000E0002070470AB1016104
:1010F00001E00B040361704701480068704700007D
:1011000000000020034800680349097808440149A9
:1011100008607047000000200800002010B5084853
:10112000006840F0100006490860032000F098F8BD
:101130000F2000F007F800F02BF8002010BD000091
:101140000020024070B504460E4800784FF47A71D2
:10115000B1FBF0F00C490968B1FBF0F5284600F04E
:10116000E9FB08B1012070BD102C07D200222146F6
:10117000501E00F037F80548046001E00120F2E756
:101180000020F0E7080000200C00002004000020F0
:1011900008B500BF1148806940F001000F4988611F
:1011A0000846806900F00100009000BF00BF00BF4A
:1011B0000846C06940F08050C8610846C06900F028
:1011C0008050009000BF00BF00BF0549486820F074
:1011D000E06040F00070486000BF08BD00100240B1
:1011E000000001402DE9F05F80460D4616460027BD
:1011F00001F0A2F8074639462A46334601F00700B7
:10120000C0F1070ABAF1040F02D94FF0040A01E055
:10121000C0F1070AD14600F1040ABAF1070F02D261
:101220004FF0000A01E0A0F1030AD4464FF0010A92
:101230000AFA09FAAAF1010A0AEA020A0AFA0CFAF7
:101240004FF0010B0BFA0CFBABF1010B0BEA030B9C
:101250004AEA0B042146404601F076F8BDE8F09FCB
:1012600000BF00F00702064B19684FF6FF03194054
:10127000044B0B4343EA0221014B196000BF704746
:101280000CED00E00000FA0570B504460D460CB9FF
:10129000012070BD5A48006800F00700A8420ED235
:1012A0005748006820F00700284355490860084661
:1012B000006800F00700A84201D00120E9E720788B
:1012C00000F0020002281DD1207800F0040004285C
:1012D00005D14C48406840F4E0604A4948602078B5
:1012E00000F00800082805D14648406840F46050E6
:1012F000444948604348406820F0F000A168084332
:1013000040494860207800F0010078B36068012807
:1013100006D13C48006800F4003090B90120B8E7DD
:101320006068022806D13748006800F0007040B9B4
:101330000120AEE73348006800F0020008B9012040
:10134000A7E73048406820F00300616808432D4952
:101350004860FFF7D1FE064609E0FFF7CDFE801B8F
:1013600041F28831884202D9032092E707E02548FC
:10137000406800F00C006168B0EB810FEDD12048AF
:10138000006800F00700A8420ED91D48006820F050
:10139000070028431A4908600846006800F0070063
:1013A000A84201D0012074E7207800F0040004284E
:1013B00007D11448406820F4E060E168084311490F
:1013C0004860207800F00800082808D10D484068DF
:1013D00020F46050216940EAC1000A49486000F0E9
:1013E0003FF808494968C1F30311074A515CC840F6
:1013F0000649086006480068FFF7A4FE002048E799
:1014000000200240001002402E3C00080C0000208A
:101410000400002001480068704700000C00002014
:1014200000B5FFF7F7FF04494968C1F30221034AF9
:10143000515CC84000BD0000001002403E3C000866
:1014400000B5FFF7E7FF04494968C1F3C221034A29
:10145000515CC84000BD0000001002403E3C000846
:1014600070B500210022002400230020134D69687C
:1014700001F00C05F5B1042D02D0082D19D101E0C1
:101480000F4819E00F4DC1F38346AB5D01F4803581
:1014900055B10A4D6D68C5F340450B4E725D084D60
:1014A0005D43B5FBF2F402E0084D03FB05F4204672
:1014B00002E000BF024800BF00BF70BD0010024044
:1014C00000127A001C3C00082C3C000800093D007A
:1014D000F8B504460CB90120F8BD207800F00100F1
:1014E000002878D0F848406800F00C0004280CD0A0
:1014F000F548406800F00C00082811D1F248406817
:1015000000F48030B0F5803F0AD1EF48006800F465
:10151000003000285FD0606800285CD10120DBE744
:1015200000BF6068B0F5803F06D1E748006840F42E
:101530008030E549086028E0606858B9E2480068F2
:1015400020F48030E04908600846006820F48020DC
:1015500008601AE06068B0F5A02F0BD1DA48006887
:1015600040F48020D84908600846006840F4803084
:1015700008600AE0D448006820F48030D24908604E
:101580000846006820F48020086000BF606888B1C9
:10159000FFF7B2FD054606E0FFF7AEFD401B6428ED
:1015A00001D9032098E7C848006800F400300028FB
:1015B000F2D010E0FFF7A0FD054606E0FFF79CFD26
:1015C000401B642801D9032086E7BF48006800F467
:1015D00000300028F2D1207800F00200022857D114
:1015E000B948406800F00C0050B1B748406800F0BE
:1015F0000C00082818D1B448406800F4803098B92D
:10160000B148006800F0020020B12069012801D033
:10161000012061E7AC48006820F0F800616940EA09
:10162000C100A949086033E02069E8B10120A74959
:101630000860FFF761FD054606E0FFF75DFD401B12
:10164000022801D9032047E79F48006800F0020004
:101650000028F2D09C48006820F0F800616940EA58
:10166000C1009949086013E0002098490860FFF71D
:1016700043FD054606E0FFF73FFD401B022801D968
:10168000032029E79048006800F002000028F2D10A
:10169000207800F0080008282DD1A069B8B10120F9
:1016A0008B490860FFF728FD054606E0FFF724FD9B
:1016B000401B022801D903200EE78348406A00F04E
:1016C00002000028F2D0012000F0D8FC13E0002036
:1016D0007F490860FFF710FD054606E0FFF70CFDA7
:1016E000401B022801D90320F6E67748406A00F043
:1016F00002000028F2D1207800F00400042873D101
:1017000000277148C06900F0805070B900BF6E4872
:10171000C06940F080506C49C8610846C06900F05B
:101720008050009000BF00BF01276A48006800F4A5
:101730008070B0B96748006840F4807065490860FF
:10174000FFF7DAFC054606E0FFF7D6FC401B6428ED
:1017500001D90320C0E65F48006800F480700028CB
:10176000F2D000BFE068012806D15748006A40F077
:1017700001005549086227E0E06858B95248006AFC
:1017800020F00100504908620846006A20F0040079
:10179000086219E0E06805280BD14B48006A40F068
:1017A0000400494908620846006A40F001000862E6
:1017B0000AE04548006A20F00100434908620846F3
:1017C000006A20F00400086200BFE068A0B1FFF7E3
:1017D00093FC054609E0FFF78FFC401B41F288317E
:1017E000884202D9032077E622E03748006A00F0F9
:1017F00002000028EFD012E0FFF77EFC054608E06B
:10180000FFF77AFC401B41F28831884201D903205E
:1018100062E62D48006A00F002000028F0D1012F96
:1018200005D12948C06920F080502749C86100BF10
:10183000E069C8B32448406800F00C00082860D074
:10184000E069022848D1002020490866FFF754FCCF
:10185000054606E0FFF750FC401B022801D9032093
:101860003AE61948006800F000700028F2D1206ABA
:10187000B0F5803F07D11448406820F40030A168DB
:10188000084311494860D4E9080108430E494968F2
:1018900021F4741108430C49486001200B49086683
:1018A000FFF72AFC054607E03DE0FFF725FC401B5B
:1018B000022801D903200FE60348006800F00070F9
:1018C0000028F2D02FE00000001002400000424249
:1018D0008004424200700040002014490866FFF76F
:1018E0000BFC054606E0FFF707FC401B022801D968
:1018F0000320F1E50E48006800F000700028F2D1E6
:1019000011E0E069012800D1E6E50948466806F4DF
:101910008031206A814204D106F47011606A8142EC
:1019200001D00120D8E50020D6E5000000004242A9
:101930000010024070B504462546681EB0F1807F55
:1019400001D301200FE0681E4FF0E02148610F2114
:101950004FF0FF3000F0F8FC00204FF0E0218861EC
:1019600007200861002070BD10B504460CB90120A5
:1019700010BDA06900B100E000BF94F8410028B993
:10198000002084F84000204600F02AF8242084F843
:1019900041002068C06820F400502168C8602046DB
:1019A00000F0F4FB2068006920F490402168086191
:1019B0002068406920F02A00216848612068C068DA
:1019C00040F400502168C86000206064202084F842
:1019D000410084F842000020606300BFC8E70000B7
:1019E00010B586B004460020029003900490059044
:1019F0001A49206888422ED100BF1948806940F4F6
:101A00008040174988610846806900F48040019051
:101A100000BF00BF00BF0846806940F00400886135
:101A20000846806900F00400019000BF00BF48151F
:101A30000290022003900320059002A90948FFF7B5
:101A4000BDF94FF48060029000200390049002A939
:101A50000448FFF7B3F906B010BD0000003801409C
:101A600000100240000801402DE9F84F04460E46E0
:101A7000174699464FF0000A94F84100202850D1AB
:101A800006B117B90120BDE8F88F0020606421205D
:101A900084F84100FFF730FB8246A784E784A06802
:101AA000B0F5805F04D1206910B90025B04602E08E
:101AB00035464FF000081EE05346002280212046A4
:101AC000CDF8009000F0E0FB20B1202084F8410028
:101AD0000320D8E745B9B8F80000C0F30800216832
:101AE000486008F1020803E02878216848606D1C0E
:101AF000E08C401EE084E08C0028DDD153460022BB
:101B000040212046CDF8009000F0BEFB20B12020FF
:101B100084F841000320B6E7202084F8410000202B
:101B2000B1E70220AFE700BFFEE700002DE9FF4F5D
:101B300083B004460F46119D382002900A21069872
:101B400090FBF1F0804931F810100A22069890FBC2
:101B5000F2F302FB13007D4A32F81000084400F54E
:101B600080401FFA80FB4FF00008287830B1687879
:101B700010B14FF4004801E04FF480484FF00009E5
:101B80001098D0B1632C04DD08F120001FFA80F911
:101B900029E00A2094FBF0F06D4931F810000A2189
:101BA00094FBF1F201FB12416A4A32F81110084429
:101BB000404420301FFA80F915E0632C01DDC14656
:101BC00011E00A2094FBF0F0614931F810000A217D
:101BD00094FBF1F201FB12415E4A32F81110084405
:101BE00040441FFA80F9687918B10BF500401FFADC
:101BF00080FB49EA0B4301221146002000F0D2F895
:101C000055490978C1F1050001F098FD059E0020B5
:101C10000190A87818B14FF4804001900AE04FF489
:101C200000400190059800EBC000052190FBF1F009
:101C3000203046B2002E04DA704246B20298801C70
:101C40000290632E05DDA6F1640046B20298401DA5
:101C500002900A2096FBF0F0404931F810000A216A
:101C600096FBF1F201FB12613D4A32F8111001447A
:101C7000019808441FFA80FB632F02DD4FF0000932
:101C800010E00A2097FBF0F0364931F810000A21E5
:101C900097FBF1F201FB1271334A32F8111008443C
:101CA0001FFA80F94FF0000AE87818B10AF5804071
:101CB0001FFA80FA287918B10AF500401FFA80FA55
:101CC00009EB0A001FFA80F90122D1022748FFF729
:101CD0000DFA2148007801F031FD49EA0B43012259
:101CE0000021104600F05EF81B490978C1F105009B
:101CF00001F024FD012211031C48FFF7F7F91648F3
:101D0000007801F01BFD029803040022012108461F
:101D100000F048F810490978C1F1050001F00EFD06
:101D20000122D1031148FFF7E1F90B48007801F0D7
:101D300005FDA87928B100224FF480710C48FFF707
:101D4000D5F907B0BDE8F08F1E0100203201002058
:101D5000B4000020BA00002090000020F60000200F
:101D60000A010020CE000020E2000020000801400F
:101D7000000C014010B500224FF400710148FFF73C
:101D8000B5F910BD000C014010B50122082104482E
:101D9000FFF7ACF9012210210148FFF7A7F910BDA8
:101DA000000C01402DE9F04105460E4690461F46C5
:101DB00000241BE04FF00040E040384028B10122F1
:101DC00080211F48FFF792F904E0002280211C487F
:101DD000FFF78CF9012240211948FFF787F900220B
:101DE00040211748FFF782F9601CC4B2202CE1DBC8
:101DF000012220211248FFF779F900222021104802
:101E0000FFF774F92A464FF400610E48FFF76EF9A8
:101E100032464FF480510B48FFF768F942464FF4C1
:101E200000410848FFF762F9002208210448FFF743
:101E30005DF9002210210248FFF758F9BDE8F08152
:101E4000000C01400008014000B585B00020019061
:101E500002900390049000BF4F48806940F020003A
:101E60004D4988610846806900F02000009000BF5D
:101E700000BF00BF0846806940F004008861084642
:101E8000806900F00400009000BF00BF00BF08465A
:101E9000806940F0080088610846806900F0080009
:101EA000009000BF00BF002205213C48FFF71EF94B
:101EB000012249F632013948FFF718F9012249F2A7
:101EC00030313748FFF712F90022C8213448FFF7B4
:101ED0000DF949F635000190012002900020039091
:101EE0000320049001A92D48FEF768FF022001900D
:101EF00011200290002003900320049001A927489C
:101F0000FEF75CFF4FF4E470019000200290012086
:101F1000039001A92148FEF751FF40F607400190C8
:101F2000002002900120039001A91D48FEF746FF02
:101F30004FF4805001900120029000200390022075
:101F4000049001A91648FEF739FF4FF4C0400190F4
:101F500000200290039001A91148FEF72FFF4FF4D3
:101F60000040019011200290002003900320049073
:101F700001A90B48FEF722FF4FF47E70019001206B
:101F80000290002003900320049001A90448FEF76A
:101F900015FF05B000BD0000001002400008014020
:101FA000000C014010B50B480B4908604FF4E130BC
:101FB0004860002108488160C16001610C214161D5
:101FC00000218161C161FFF7CFFC08B1FEF7F3FE8C
:101FD00010BD0000003801405401002000BFFEE7A2
:101FE00000BFFEE710B54FF4FA7001F0A7FB10BD7B
:101FF00070B50546012210211F48FFF777F800222F
:1020000010211D48FFF772F8042001F097FB00240F
:1020100026E00120A040284080B10122202116485E
:10202000FFF764F8032001F089FB00221021124819
:10203000FFF75CF8012001F081FB0FE00122202175
:102040000D48FFF753F8012001F078FB0022102122
:102050000948FFF74BF8032001F070FB601CC4B285
:10206000082CD6DB012210210348FFF73FF864203B
:1020700001F064FB70BD00000008014008B508498C
:102080000968C9084FF47A72B1FBF2F1414300913B
:1020900000BF00BF00994A1E00920029F9D108BD77
:1020A0000C00002010B501F015FC012801D001F052
:1020B000DBFBFFF727F810BD00B58FB0282105A87E
:1020C000FEF785F814216846FEF781F80120059097
:1020D00000040690002007900120099002200C9037
:1020E000C1030D914FF4E0110E9105A8FFF7F0F92F
:1020F00008B1FEF760FE0F20009002200190002042
:1021000002904FF480600390002004900221684602
:10211000FFF7BAF808B1FEF74EFE0FB000BD7047EA
:1021200000BF00BF02680C3252E8002F22F4907109
:1021300002680C3242E80013002BF3D100BF00BF4D
:1021400000BF0268143252E8002F22F00101026839
:10215000143242E80013002BF3D100BF016B0129B8
:102160000ED100BF00BF02680C3252E8002F22F0EF
:10217000100102680C3242E80013002BF3D100BFBB
:10218000202180F8421000210163704770B5044699
:102190002168096921F44051E26811432268116104
:1021A0002269A1681143626941EA02052168C96890
:1021B00041F20C62914329432268D1602168496948
:1021C00021F44071A2691143226851612D4A2168AE
:1021D000914202D1FFF734F901E0FFF721F900EB5A
:1021E000C00101EB001162689200B1FBF2F100EB5B
:1021F000C00202EB001263689B00B2FBF3F264239F
:10220000B2FBF3F202EBC20303EB0212A1EB820179
:10221000322202EB01116422B1FBF2F101F0F00174
:1022200000EBC00202EB001263689B00B2FBF3F20A
:102230006423B2FBF3F201EB021200EBC00101EBED
:10224000001163689B00B1FBF3F100EBC00303EBEB
:1022500000136668B600B3FBF6F36426B3FBF6F32F
:1022600003EBC30606EB0313A1EB8301322303EB5D
:1022700001116423B1FBF3F101F00F011144226855
:10228000916070BD003801402DE9F84304460D46C9
:1022900017469846089E31E0701C70B3FEF72CFF7D
:1022A000A0EB0800B04200D816B90320BDE8F883BF
:1022B0002068C06800F00400F8B1802D1ED0402DC9
:1022C0001CD020680068C0F3C000B0B100BF00207F
:1022D000009020680068009020684068009000BF6F
:1022E00000BF2046FFF71CFF0820606400BF0020ED
:1022F00084F8400000BF0120D8E7FFE720680068AD
:102300002840A84201D1012000E00020B842C3D0FB
:102310000020CBE700BFFEE70FB4054B10B503A9C3
:10232000044A029800F034F810BC5DF814FB000079
:102330006D2900085001002002480068C0F3022007
:10234000704700000CED00E010B5002804DB0A0720
:10235000130E054A135406E00A07140E034A00F050
:102360000F031B1FD45410BD00E400E018ED00E083
:1023700002E008C8121F08C1002AFAD1704770474E
:10238000002001E001C1121F002AFBD170470000AC
:102390002DE9FF4F8BB09A460F460546002606E012
:1023A00025280BD052460D9990476D1C761C287835
:1023B0000028F5D10FB03046BDE8F08F0024A046CC
:1023C0000122604900E0044315F8013F203B02FA76
:1023D00003F00842F7D128782E2817D115F8010FFD
:1023E00044F004042A280ED06FF02F022878A0F1C0
:1023F000300109290AD808EB880102EB410100EB02
:1024000001086D1CF2E757F8048B6D1C28786928C9
:102410003ED006DC0028CDD063280BD0642804D140
:1024200036E0732810D075284BD052460D9990474E
:10243000761C85E017F8040B8DF8000000208DF85D
:102440000100E946012003E057F8049B4FF0FF30FC
:1024500061074FF0000401D40AE0641C44450DDA22
:102460008442FADB19F804100029F6D106E0641C56
:102470008442FCDB19F804100029F8D1264404E05A
:1024800019F8010B52460D999047641EF8D257E097
:1024900001CF4FF00A0B002802DA40422D2102E062
:1024A000210504D52B218DF82410012103E0E1073B
:1024B00005D02021F7E70DF1200908910CE000215B
:1024C000F9E701CF4FF00A0BF9E75946FDF78AFE0D
:1024D00001F1300209F8012D0028F6D1ADEB090019
:1024E00000F1200B600701D44FF00108D84502DD50
:1024F000A8EB0B0000E000208046002406E009A8BD
:102500005246005D0D999047641C761C08988442E1
:10251000F5DB04E0302052460D999047761CB8F167
:102520000001A8F10108F5DC05E019F8010B52469D
:102530000D999047761CBBF10001ABF1010BF4DC67
:102540006D1C34E7092801002DE9F04704468C2072
:1025500000F052F9074607F00F00391101EB810135
:1025600000EB410000F5FA602080882000F044F97B
:10257000804608F00F004FEA281101EB810100EBC3
:102580004100A070862000F037F9814609F00F0065
:102590004FEA291101EB810100EB4100E0708A2034
:1025A00000F02AF982460AF00F00A071842000F0A2
:1025B00023F9054605F08000A8B10120207205F03E
:1025C000200010B10120E07101E00020E07105F071
:1025D000100020B105F00F000A30207118E005F05E
:1025E0000F00207114E00020207205F0200020B1BF
:1025F00005F00F00143020710AE005F0100020B142
:1026000005F00F000A30207102E005F00F00207184
:10261000207A012807D1E07918B120790C3040B236
:10262000207100202072822000F0E6F8064606F0B5
:102630000F00311101EB810100EB410040B26071EC
:10264000BDE8F0872DE9F05F044600218E2000F000
:1026500031F92088A0F5FA600A2190FBF1F201FB24
:1026600012012088A0F5FA600A2290FBF2F041EAFC
:10267000001000F0FF0949468C2000F01BF9A078FB
:102680000A2190FBF1F201FB1200A1780A2291FBD2
:10269000F2F101F0010140EA011000F0FF094946A2
:1026A000882000F007F9E0780A2190FBF1F201FBA5
:1026B0001200E1780A2291FBF2F101F0030140EAF5
:1026C000011000F0FF094946862000F0F3F894F964
:1026D00004000C281ADD94F904000C380A2190FB40
:1026E000F1F000F0FF0994F904000C3890FBF1F2CE
:1026F00001FB120000F0FF0AA02040EA091040EAA6
:102700000A00C1B2842000F0D5F81EE094F904005C
:102710000A2190FBF1F000F0FF0994F9040090FB0E
:10272000F1F201FB120000F0FF0A0A209AFBF0F11F
:1027300000FB11A0802141EA0911084300F0FF0BC2
:102740005946842000F0B6F800BF94F905000A212C
:1027500090FBF1F201FB120094F905100A2291FBA3
:10276000F2F101F0070140EA011000F0FF094946CB
:10277000822000F09FF80021802000F09BF825883F
:1027800094F80280642095FBF0F0C7B2B8F1030F13
:1027900005DA08F10C0000F0FF08681E85B208F1A8
:1027A00001021A235A430A2392FBF3F2EB1705EBBB
:1027B000937305EBA3034FEAE77C07EB9C7C03EBE9
:1027C000AC034FF0020C0CFB17331A44E3781A44A5
:1027D000521E16B201E0F01D06B2002EFBDB0720F0
:1027E00096FBF0F100FB116606B90726F1B28A20CC
:1027F00000F060F8BDE8F09F70B5054645F00105B2
:10280000002204212A48FEF771FC002201212848F9
:10281000FEF76CFC012204212548FEF767FC052029
:1028200000F020F900241CE00120A040284028B13D
:10283000012202211E48FEF759FC04E00022022179
:102840001B48FEF753FC012211461948FEF74EFCC7
:10285000012000F007F9002201211548FEF746FC8F
:10286000641C082CE0DB0026012202211048FEF740
:102870003DFC002413E002210D48FEF72FFCA04090
:102880003043C6B2072C09DA012211460848FEF788
:102890002DFC002201210648FEF728FC641C082CB0
:1028A000E9DB002204210248FEF720FC304670BD1F
:1028B0000008014070B504460E4604F0FE040022F4
:1028C00004212948FEF712FC002201212648FEF7C8
:1028D0000DFC012204212448FEF708FC052000F02D
:1028E000C1F800251CE00120A840204028B10122A9
:1028F00002211D48FEF7FAFB04E0002202211A48DB
:10290000FEF7F4FB012211461748FEF7EFFB01200A
:1029100000F0A8F8002201211348FEF7E7FB6D1C28
:10292000082DE0DB00251CE00120A840304028B144
:10293000012202210C48FEF7D9FB04E0002202210B
:102940000948FEF7D3FB012211460748FEF7CEFBEC
:10295000012000F087F8002201210348FEF7C6FBA2
:102960006D1C082DE0DB70BD0008014013B50C465E
:102970004FF6FF73012269460248FFF775F8009889
:102980001CBD00005401002070B504460D462946C8
:102990002046FEF7A3FB98B90A2000F0CFFE294697
:1029A0002046FEF79BFB58B902E0012000F0C6FE6E
:1029B00029462046FEF792FB0028F6D0012070BD84
:1029C0000020FCE710B54FF480610448FEF786FB59
:1029D00008B9002010BD0120FCE70000000C0140F8
:1029E00010B54FF400610448FEF778FB08B90020E9
:1029F00010BD0120FCE70000000C014010B54FF4B1
:102A000000510448FEF76AFB08B9002010BD012000
:102A1000FCE70000000C014010B5104800780228C7
:102A200007D141030E48FEF759FB0C4908700020FE
:102A300010BD4FF480410A48FEF750FB0749097862
:102A4000884208D04FF480410548FEF747FB034910
:102A500008700120ECE70020EAE70000B000002049
:102A6000000C01400021C10000E000BF0A1EA1F1DE
:102A70000101FAD17047000070B501213448FFF719
:102A800083FF08B1052070BD02213148FFF77CFFAC
:102A900008B10620F7E780212E48FFF775FF08B13F
:102AA0000720F0E74FF480712A48FFF76DFF08B167
:102AB0000820E8E704212648FEF710FB00BB0A20A7
:102AC00000F03CFE04212248FEF708FBC0B900F0EC
:102AD00011FF054602E0012000F030FE04211C48F1
:102AE000FEF7FCFA0028F6D000F004FF0446601B55
:102AF00040F6B831884201D30220C4E70120C2E782
:102B000040211448FEF7EAFA00BB0A2000F016FE46
:102B100040211048FEF7E2FAC0B900F0EBFE05468E
:102B200002E0012000F00AFE40210A48FEF7D6FA32
:102B30000028F6D000F0DEFE0446601B40F6B831F7
:102B4000884201D304209EE703209CE700209AE7F7
:102B5000000C014000080140FEF7E0FAFFF7ACFA74
:102B6000FFF772F9FFF71EFAFDF790FB00BFFEE7D3
:102B70002DE9F04705460E46294807682948D0F850
:102B800000802948D0F8009028480068001D00F017
:102B900043FD50B92548006890F82C10012088406A
:102BA00023490968814322480160681CE0B9DEB10D
:102BB00000BF204948681D49096888601B49826830
:102BC0000968CA6019490968091D82685160174976
:102BD0000968091D8160174A144909684A6111464C
:102BE0000968491C116018E07C19104800684460AD
:102BF000BC4206D20D480168091D484600F030FD70
:102C00000BE00A480168091D404600F029FD0A480A
:102C10000068844201D208480460BDE8F0870000E3
:102C200024000020140000201800002010000020C4
:102C300028000020500200204000002010B504466B
:102C400000F028FD32480068401C314908603148D6
:102C5000006840B92F4804600846006801280DD17B
:102C600000F07AF90AE02C48006838B92948006871
:102C7000C06AE16A884201D8264804602748006893
:102C8000401C2649086000BF94F82C1001208840A1
:102C90002349096808432249086000BFE16A01EB43
:102CA0008101204A02EB81014868A0608268E260ED
:102CB000211D826851608160E16A01EB8101194A3E
:102CC00002EB81026261E16A01EB8101154A52F86F
:102CD0002110491CE26A02EB8202124B43F82210D7
:102CE00000BF00BF00F0E8FC0B48006878B100BFEF
:102CF00008480068C06AE16A884207D24FF08050F5
:102D000009490860BFF34F8FBFF36F8F00BF10BD3D
:102D100020000020100000202C0000203C0000209B
:102D2000280000209C01002004ED00E010B516E012
:102D300000F0B0FC0C48C068C468201D00F06CFCBA
:102D40000A480068401E0949086009480068401E9A
:102D50000749086000F0B0FC204600F06CF8044819
:102D600000680028E4D110BD3C02002020000020B3
:102D70001C000020F0B587B001260027002408E0E1
:102D800012A0005D03A9085503A8005D00B902E088
:102D9000641C102CF4DB00BF002510E00D4F0E4822
:102DA00000EB850000210B468022CDE9001003A92D
:102DB000384600F073FD064606B902E06D1C012D91
:102DC000ECDB00BF304607B0F0BD000049444C4585
:102DD00000000000B52E0008440000202DE9FF5F30
:102DE0000746884616469946DDE90EABB00000F06E
:102DF0003FF9054675B14C2000F03AF904462CB174
:102E00004C212046FDF7E3F9256304E0284600F055
:102E100063FC00E0002454B100204B46324641469A
:102E2000CDE900ABCDE90240384600F057F8204626
:102E300004B0BDE8F09F10B50446206B00F04CFCD8
:102E4000204600F049FC10BD30B54FF488431448CB
:102E500000F007042CB1C01D20F00700104C041B2B
:102E60001B1B104C206000240E4D6C60C218083AE9
:102E700022F007020C4C226000240B4D2D686C6080
:102E8000094D2D682C600146541A4C60064C24688C
:102E90000C60064D4C682C60054D4C682C6030BDB4
:102EA0006402002050000020580000206000002034
:102EB0005C00002000BFFFF739FF064800680128CA
:102EC000F9D94FF0805004490860BFF34F8FBFF32A
:102ED0006F8FF0E79C01002004ED00E02DE9FF5F1B
:102EE00080460E469146DDE90E7A109CA9F101005C
:102EF000216B01EB800B2BF0070B7EB1002507E067
:102F0000715D04F134004155705D00B902E06D1C43
:102F1000102DF5D300BF002143200155052F00D30C
:102F20000427E762201D00F098FB04F1180000F070
:102F300094FB2461C7F10500A061646241465846D4
:102F4000039A00F015F92060BAF1000F01D0CAF819
:102F50000040BDE8FF9F000010B5002407E004EB2F
:102F600084010F4A02EB810000F06AFB641C052C0F
:102F7000F5D30C4800F064FB0B4800F061FB0B48F4
:102F800000F05EFB0A4800F05BFB0A4800F058FBCB
:102F900004480949086004480849086010BD000059
:102FA0009C010020000200201402002028020020C2
:102FB0003C020020500200201400002018000020D5
:102FC00010B50146164800E0006803688B42FBD349
:102FD0000246436813448B4204D143684C6823443F
:102FE000436001460A464B6813440468A34211D16A
:102FF0000C4C03682468A34208D04B6804686468DA
:1030000023444B6003681B680B6005E0054B1B689D
:103010000B6001E003680B60884200D0016010BDC6
:10302000500000205800002009480068006808B9D6
:10303000012000E0002020B14FF0FF30054908607A
:1030400005E003480068C0680068024908607047EE
:10305000140000204000002000BFBF2080F3118832
:10306000BFF34F8FBFF36F8F00BF00BFFEE70000BD
:103070002DE9F04704464FF00009DCB114F1090FC7
:1030800001D9012000E0002098B9083404F00700BD
:1030900080B104F00700C0F10808C8F1FF30A04279
:1030A00001D2012000E0002008B9444402E00024DD
:1030B00000E0002400F082FB2848006808B9FFF710
:1030C000C3FE012000EBE470002841D0002C3FD06B
:1030D0002348006884423BD8224E3046056801E010
:1030E0002E462D686868A04202D228680028F7D1D1
:1030F0001A48006885422BD0306800F1080928681A
:1031000030606868001B102807D92F196868001BF9
:1031100078606C60306838603760114968680968A9
:10312000081A0F490860084600680F490968884274
:1031300003D20B4800680C490860686840F0004002
:1031400068600020286009480068401C0749086042
:1031500000F0A6FC4846BDE8F087000058000020BB
:103160005C0000205000002060000020640000206F
:10317000001F4FF080730360001F21F00103036004
:10318000001F034B036014380260203870470000B2
:1031900059300008FEF726FF0024A3E0524840798A
:1031A000012803D1514880790628F6DA5048007882
:1031B000002820D14C48C078012846D14D4890F9CC
:1031C00000004A4991F90410884232D1494890F9E7
:1031D0000100464991F9051088422AD14548807876
:1031E00050B90120434988700020FEF701FF424892
:1031F00000784249087071E03E48807801286DD11E
:103200003C48C078002869D1601CC4B2052C03DB9F
:103210000020FEF7EDFE0024384800783649097892
:1032200088425BD0FE20FEF7E3FE01203149C870E2
:1032300054E030488078012850D100202D49887012
:10324000C870FE20FEF7D4FE48E027480079012828
:1032500044D12B4890F90000244991F90410884288
:1032600031D1274890F90100204991F90510884291
:1032700029D12348807850B9012021498870002045
:10328000FEF7B6FE1C4800781C49087026E01C4872
:103290008078012822D11A48C078F8B9601CC4B2DD
:1032A000052C03DB0020FEF7A3FE00241348007862
:1032B00011490978884211D0FE20FEF799FE0120BD
:1032C0000F49C8700AE00E488078012806D1002016
:1032D0000B498870C870FE20FEF78AFE4FF47A70A2
:1032E00000F02CFA5AE70000980000206446002005
:1032F0009500002088000020900000209100002010
:103300008C000020FDF748FD092413E0601CC4B2C6
:103310000A2C04DB002408490848FDF765FC08482E
:103320000078012802D00748FFF70EF94FF47A70B1
:1033300000F004FAEAE70000930000209200002069
:10334000950000206446002000244DE0FFF794FB28
:1033500004462CB940F26F1224A12BA0FEF7DCFF2B
:10336000012C05D140F2711220A12AA0FEF7D4FF52
:10337000022C05D140F273121CA129A0FEF7CCFF4C
:10338000032C05D140F2751218A128A0FEF7C4FF46
:10339000042C05D140F2771214A127A0FEF7BCFF40
:1033A000052C05D140F2791210A126A0FEF7B4FF3A
:1033B000062C05D140F27B120CA125A0FEF7ACFF34
:1033C000072C05D140F27D1208A124A0FEF7A4FF2E
:1033D000082C05D140F27F1204A123A0FEF79CFF28
:1033E0004FF47A7000F0AAF9B0E700006170706CD9
:1033F00069636174696F6E5C4150505F66726565A8
:1034000072746F732E6300005B25733A25645D311F
:103410000D0A00005B25733A25645D320D0A000039
:103420005B25733A25645D330D0A00005B25733A12
:1034300025645D340D0A00005B25733A25645D3513
:103440000D0A00005B25733A25645D360D0A000005
:103450005B25733A25645D370D0A00005B25733ADE
:1034600025645D380D0A00005B25733A25645D39DB
:103470000D0A0000FDF748F835E01B4800780128E8
:103480002FD11A48007818B11848007803280AD1BB
:10349000174B184890F90020174890F9001017486A
:1034A000FCF7F2FF1FE01148007801280AD1104B09
:1034B000104890F90020104890F900100F48FDF7CF
:1034C0002DF810E00948007802280CD1084B094873
:1034D00090F90020084890F900100848FCF754FFC4
:1034E00001E0FEF751FCC8E79F0000209500002096
:1034F00098000020930000209200002064460020E5
:1035000028E01548007810B9FDF7D6F90CE012480C
:103510000078012802D1FDF787FA05E00E4800780F
:10352000022801D1FDF7AEF8FDF742FAFFF774FA71
:103530000446012C0AD109480078401C074908704C
:1035400008460078052801DD00200870322000F0D0
:10355000F5F800BFD5E7000095000020900000209E
:10356000FEF740FD2A490978E031C8B2FEF740FD78
:1035700063254BE027480078032844D1681CC5B276
:10358000642D03DB0020FEF733FD0025FFF774FAFE
:103590000446032C2CD0052C02D0062C30D113E08D
:1035A0001B480078401C40B219490870084690F941
:1035B0000000072801DD0720087015490978E0316F
:1035C000C8B2FEF715FD1CE011480078401E40B25D
:1035D0000F490870084690F90000002801DA002021
:1035E00008700B490978E031C8B2FEF701FD08E028
:1035F000002008490870FE20FEF7FAFC632500E071
:1036000000BF00BF00BF322000F098F8B2E7000012
:10361000940000209500002001460A69D1E901309C
:103620009860D1E9010358605068884201D18868E8
:103630005060002008611068401E106010687047DC
:1036400000F1080141604FF0FF31816000F1080195
:10365000C160016100210160704700210161704774
:1036600010B502460B685C1C0CB9106907E002F14A
:10367000080000E04068446824689C42FAD9446825
:103680004C604C68A160886041600A611468641CE9
:10369000146010BD00BFBF2080F31188BFF34F8FAF
:1036A000BFF36F8F00BF03480068401C01490860EA
:1036B000704700006C00002006480068401E054965
:1036C00008600846006820B9002080F3118800BF18
:1036D00000BF70476C00002070B506463546E6B165
:1036E000083D2C466068C00FB8B12068A8B9606872
:1036F00020F00040606000F061F8084960680968E7
:103700000844064908602046FFF75AFC0448006850
:10371000401C0349086000F0C3F970BD5C00002044
:103720006800002000204FF0E02108618861024815
:1037300048610720086170473F19010070B50446D1
:10374000002544B100F03AF800212046FFF710FAB6
:1037500000F0A6F905463DB94FF0805003490860D6
:10376000BFF34F8FBFF36F8F70BD000004ED00E01B
:1037700010B5FFF7FFFA0446012C14D100BFBF209B
:1037800080F31188BFF34F8FBFF36F8F00BF4FF0EF
:10379000FF300649086001200549086000200549FE
:1037A000086000F047F80448006810BD40000020A1
:1037B0002C0000202400002048000020024800685F
:1037C000401C0149086070474C0000201448006804
:1037D00018B101201349086021E000201149086058
:1037E00000BF11480068B0FA80F0C0F11F0100BFAF
:1037F00001EB81020D4B03EB82004268526842608C
:1038000000F108024368934201D1C26842604268F5
:10381000D268074B1A6000BF00BF184600687047A7
:103820004C00002034000020280000209C010020D3
:103830001000002010B50A48006840F47F000849D5
:1038400008600846006840F07F400860FFF76AFFA4
:10385000002004490860FCF767FC002010BD000050
:1038600020ED00E06C00002010B500BFBF2080F309
:103870001188BFF34F8FBFF36F8F00BF00F040F888
:1038800018B14FF080500449086000BF002080F359
:10389000118800BF10BD000004ED00E02DE9FC5FC1
:1038A00006460F4690469946DDE90CAB4B4642462C
:1038B00039463046CDE900ABFFF790FA054625B111
:1038C0002846FFF7BBF9012401E04FF0FF34204602
:1038D000BDE8FC9F0549096809B9012005E00449D4
:1038E000096809B9022000E0002070472C00002080
:1038F0004C000020014908687047000024000020A7
:103900002DE9F04100275B48006800287DD15A4826
:103910000068451C5848056095B900BF5748D0F865
:10392000008057480068554908605548C0F8008035
:1039300054480068401C53490860FFF775FB00BFFE
:103940005148006885427DD300BF4C48006800683C
:1039500008B9012000E0002020B14FF0FF304A49B3
:1039600008606EE045480068C068C4686668B54293
:1039700002D24548066064E000BF6069D4E90212E3
:103980008A60D4E902214A60211D42688A4201D13D
:10399000E1684160002262610168491E016000BF68
:1039A000A06AA0B100BFA06AD4E907128A60D4E976
:1039B00007214A6004F1180142688A4201D1216A54
:1039C00041600022A2620168491E016000BF00BF81
:1039D00094F82C10012088402C49096808432B4991
:1039E000086000BFE16A01EB8101294A02EB810115
:1039F0004868A0608268E260211D82685160816031
:103A0000E16A01EB8101224A00E02BE002EB810236
:103A10006261E16A01EB81011D4A52F82110491CE3
:103A2000E26A02EB82021A4B43F8221000BF00BF89
:103A30001849E06A0968C96A884286D9012784E77B
:103A400000E000BF13480068C06A00EB8000104926
:103A500051F82000012800D901270F48006800B163
:103A6000012704E00D480068401C0C4908603846F6
:103A7000BDE8F0814C00002024000020140000204C
:103A800018000020380000204000002028000020FE
:103A90009C01002010000020340000203000002095
:103AA0002DE9F04100240027FFF7F4FD00255248DE
:103AB0000068401E504908600846006800286ED122
:103AC0004E48006800286AD064E04D48C068C46869
:103AD00000BFA06AD4E907128A60D4E907214A60CE
:103AE00004F1180142688A4201D1216A4160002232
:103AF000A2620168491E016000BF00BF6069D4E98D
:103B000002128A60D4E902214A60211D42688A4279
:103B100001D1E1684160002262610168491E0160D3
:103B200000BF00BF94F82C10012088403549096877
:103B300008433449086000BFE16A01EB8101324A61
:103B400002EB81014868A0608268E260211D826802
:103B500051608160E16A01EB81012B4A02EB810235
:103B60006261E16A01EB8101274A52F82110491C88
:103B7000E26A02EB8202244B43F8221000BF00BF2E
:103B80002249E06A0968C96A884203D901202049AC
:103B900041F825001A48006810B9012001E026E02C
:103BA0000020002891D00CB1FFF73EFA19480668B2
:103BB0006EB100BFFFF7A4FE18B10120144941F80F
:103BC0002500761E002EF5D100201249086010480D
:103BD00050F8250058B1012700BF0C48006838078D
:103BE0000D490860BFF34F8FBFF36F8F00BFFFF722
:103BF00063FD3846BDE8F0814C0000202000002025
:103C000028020020280000209C0100201000002035
:103C1000340000203000002004ED00E00203040521
:103C2000060708090A0B0C0D0E0F10100102000008
:103C3000000000000000010203040607080900005C
:103C40000000010203040000683C0008000000209E
:103C50005401000034020008B03C00085401002068
:103C60001C49000080230008413210420103391230
:103C70007A0223041AAA010124520539923905C196
:103C800052021206125B13801F1603802D80273804
:103C90000D338036803E8003803F80373F1A124FBD
:103CA0001266126D127D1207127F0A636F28E100FF
:04000005080000ED02
:00000001FF
